:100000006AEF00F0FF00FF000182FACF3BF0FBCF68
:100010003CF0D9CF3DF0DACF3EF0F3CF3FF0F4CF54
:1000200040F0F6CF41F0F7CF42F0F8CF43F0F5CFF4
:1000300044F0F2AC1EEF00F020EF00F054EF00F0BF
:100040009DA625EF00F027EF00F032EF00F09EA60E
:100050002CEF00F02EEF00F032EF00F0F5EC0BF09B
:1000600054EF00F0A0A837EF00F039EF00F044EFB4
:1000700000F0A1A83EEF00F040EF00F044EF00F0E8
:1000800002EC0CF054EF00F0A0A649EF00F04BEFAB
:1000900000F054EF00F0A1A650EF00F052EF00F096
:1000A00054EF00F0F8EC0BF044C0F5FF43C0F8FF4C
:1000B00042C0F7FF41C0F6FF40C0F4FF3FC0F3FF6E
:1000C0003EC0DAFF3DC0D9FF3CC0FBFF3BC0FAFF9A
:1000D00001921100DBEF09F0FF00FF00FF00FF00BD
:10100000004C1700007414F8137213000000000065
:101010001800000000F617B217DC17DA121E12A82B
:10102000179E1794178A17446174653A20000000D0
:101030009E96C7A81EEF08F020EF08F024EF08F0F6
:101040009AEC0BF04AEF08F0C7BA29EF08F02BEF43
:1010500008F038EF08F0C5AC30EF08F032EF08F0D8
:1010600038EF08F0050E0D6E010E0C6E4AEF08F019
:10107000C7AA3DEF08F03FEF08F04AEF08F0C5AC13
:1010800044EF08F046EF08F04AEF08F0050E0D6E49
:10109000020E0C6E0D50020DF350150F386E38C055
:1010A000F6FF100EF76EF86A0900F5CF39F0090067
:1010B000F5CF3AF002D866EF08F00500FA6E395025
:1010C000FD6E3A50FE6EFF6AFA5012000D6E12006D
:1010D0008DEC0BF0F28EF28CA00E4A6E300E4B6E41
:1010E000A20E1BEC0AF0A10E4A6E200E4B6EA60E4D
:1010F0001BEC0AF0000E4A6E9E0E41EC09F0306EB9
:1011000059EC0AF020EE0EF0050EEBCFDBFFE806FF
:10111000FCE2DCEC08F0466A500E456E300E476E7D
:10112000496A010E486E3AEC0AF000EC0CF0000936
:10113000D8A49DEF08F09FEF08F095EF08F07AEF44
:1011400008F06AEF00F04D6A000E4C6E4D6A000E1A
:101150004C6ED0EF08F05EEC0BF00009D8B4B3EFA2
:1011600008F0B5EF08F0ABEF08F04C5046244A6E9B
:101170004D5047204B6E4AC0F6FF4BC0F7FF000EA4
:10118000F86E0F0EF76403D00800F55005D0F6CFC7
:10119000E9FFF7CFEAFFEF50E6EC0BF04C4A4D2A9F
:1011A00048504C5C49504D58D8A0D9EF08F0DBEFBF
:1011B00008F0ABEF08F01200270E466E4650D8A498
:1011C000100E476E496A070E486EA3EC08F01738F8
:1011D0000F0B300F0001606F17500F0B300F616F56
:1011E0002F0E626F18380F0B300F636F18500F0BF4
:1011F000300F646F2F0E656F19380F0B300F666F4D
:1012000019500F0B300F676F0D0E686F600E466E32
:10121000476A496A090E486EA3EC08F01200040EF2
:10122000376EC7A016EF09F018EF09F03EEF09F08E
:1012300009500A10D8B41FEF09F021EF09F02AEF86
:1012400009F00850D96EDA6AC9CFDFFF082A09060B
:10125000D8A00A0609500A10D8B431EF09F033EFCC
:1012600009F037EF09F0C59AC5883FEF09F0C5923C
:10127000C58AC588070E376E3FEF09F0C58637501F
:1012800012004B6E4C6A4BC045F0466A4A0E476EE0
:10129000496A010E486E3AEC0AF000EC0CF00009C5
:1012A000D8A455EF09F057EF09F04DEF09F04BC006
:1012B00045F0466A4C0E476E496A010E486EFCECDA
:1012C00009F000EC0CF00009D8A469EF09F06BEF0D
:1012D00009F061EF09F04C50120006500710D8B425
:1012E00074EF09F076EF09F083EF09F00606D8A055
:1012F00007060550D96EDA6ADF50C96E052A030E5B
:10130000376E94EF09F00B50D8B489EF09F08BEFEA
:1013100009F091EF09F00B6AC582010E376E94EF68
:1013200009F0CAEC0BF0376E37501200060E0D6E46
:10133000030E0C6EA1960D50020DF350150F386E72
:1013400038C0F6FF100EF76EF86A0900F5CF39F0D5
:101350000900F5CF3AF002D8B7EF09F00500FA6EB0
:101360003950FD6E3A50FE6EFF6AFA5012000D6E53
:10137000120000EC0CF00009D8A4C1EF09F0C3EF93
:1013800009F0DAEF09F0010E026E45C003F046C025
:1013900004F0010E0B6E47C005F048C006F049C0CE
:1013A00007F04AC008F04BC009F04CC00AF00C6AC4
:1013B000EAEC0BF01200E40EF66E170EF76E000E5C
:1013C000F86E00EE53F010EE06F00900F5CFEEFFD8
:1013D000E550E150FAE100EE60F00F0EEE6AE8062B
:1013E000FDE100EE02F0350EEE6AE806FDE1019047
:1013F0000192000168EF08F000EC0CF00009D8A49D
:1014000004EF0AF006EF0AF01AEF0AF0010E026E7E
:1014100045C003F046C004F00B6A47C008F048C05E
:1014200009F049C00AF0056A076A000E066E0C6AE8
:10143000DEEC0BF012004E6E4B504D6E4C6A4A5073
:101440004C242E6E000E4D202F6E4EC045F0466A85
:101450002E0E476E496A020E486E3AEC0AF000EC16
:101460000CF00009D8A437EF0AF039EF0AF02FEF9B
:101470000AF0120000EC0CF00009D8A442EF0AF0C8
:1014800044EF0AF058EF0AF0010E026E45C003F077
:1014900046C004F00B6A47C005F048C006F049C0DA
:1014A00007F0086A0A6A000E096E0C6AEAEC0BF093
:1014B000120090EC0AF0146EC6EC0AF0156EE1EC26
:1014C0000AF0166EFCEC0AF0176EABEC0AF0186E20
:1014D00075EC0AF0196E20EE14F000EE4DF0050EDA
:1014E000DBCFEBFFE806FCE21200466AD00E456E49
:1014F000580E476E496A010E486E310E4A6E4C6AAC
:10150000010E4B6EB9EC09F000EC0CF00009D8A408
:101510008CEF0AF08EEF0AF084EF0AF031501200DF
:10152000466AD00E456E530E476E496A010E486EEC
:10153000360E4A6E4C6A010E4B6EB9EC09F000ECA7
:101540000CF00009D8A4A7EF0AF0A9EF0AF09FEF6A
:101550000AF036501200466AD00E456E570E476E9E
:10156000496A010E486E320E4A6E4C6A010E4B6E8D
:10157000B9EC09F000EC0CF00009D8A4C2EF0AF0B5
:10158000C4EF0AF0BAEF0AF032501200466AD00EE9
:10159000456E540E476E496A010E486E350E4A6E0E
:1015A0004C6A010E4B6EB9EC09F000EC0CF000092E
:1015B000D8A4DDEF0AF0DFEF0AF0D5EF0AF03550DE
:1015C0001200466AD00E456E550E476E496A010EEE
:1015D000486E340E4A6E4C6A010E4B6EB9EC09F03F
:1015E00000EC0CF00009D8A4F8EF0AF0FAEF0AF0CA
:1015F000F0EF0AF034501200466AD00E456E560ED7
:10160000476E496A010E486E330E4A6E4C6A010EEF
:101610004B6EB9EC09F000EC0CF00009D8A413EF04
:101620000BF015EF0BF00BEF0BF033501200D09EC8
:10163000F292F18C000E456E000E466EC0EC0BF07F
:10164000F090F18A000E456E000E466EBBEC0BF07A
:10165000F092F188000E456E000E466EB6EC0BF06F
:101660001200480EB86E900EAB6E260EAC6EA00E39
:10167000AF6E010EB06E000E456E000E466E7FEC32
:101680000BF0000E456E000E466E71EC0BF01F6AFB
:10169000000E1E6E1200896A8A6A580E8B6E8C6A62
:1016A0008D6A92689368BF0E946E9568070E966E69
:1016B0001F0E7F6E7C687D6AF2861200456A9EA8C6
:1016C00064EF0BF066EF0BF06FEF0BF0ACAA6BEF73
:1016D0000BF06DEF0BF06FEF0BF0010E456E455008
:1016E000120045504610D8B478EF0BF07AEF0BF0AB
:1016F0007EEF0BF045C01AF046C01BF012004550BB
:101700004610D8B486EF0BF088EF0BF08CEF0BF09F
:1017100045C01CF046C01DF01200E2EC0BF04BEC93
:101720000BF0A6EC0BF031EC0BF0B1EC0BF017EC7E
:101730000BF01200026A000E046E0368056A086A64
:101740000D6A9E96A196C69EC69C1200800EC76E1C
:10175000080EC66EC56A270EC86E9D86A086C68A0C
:101760001200FEEC0BF0A198A088120045C020F0FA
:1017700046C021F0120045C022F046C023F01200FE
:1017800045C024F046C025F01200C69AC68A026AF7
:10179000000E1200C5849AEC0BF0000E1200C5EC8E
:1017A0000BF0376E37501200CAEC0BF0376E375023
:1017B000120003500109C96E040E1200C580010E0B
:1017C0000D6E1200700ED36E9B6A1200456E45C0FE
:1017D000ADFF1200C580020E0D6E120003C0C9FFDE
:1017E000030E120000010204050618EC08F01200B6
:1017F00096EC09F01200026A080E1200A69612007A
:1018000002501200A1981200FF00FF00FF00FF002D
:020000040030CA
:0E000000FF081F1EFF8B85FF0FC00FE00F4093
:00000001FF
